:03000000020C6B84
:0C0C6B00787FE4F6D8FD7581200209C2F4
:100A8C00AB07AA067C277D1012095FEF2430F50D09
:100A9C007C277D10AF03AE0212095FAA04AB057C64
:100AAC00037DE8AF03AE0212095FEF2430F5087C3A
:100ABC00037DE8AF03AE0212095FAA04AB057C000C
:100ACC007D64AF03AE0212095FEF2430F5097C00A0
:100ADC007D64AF03AE0212095FAA04AB057C007DF6
:100AEC000AAF03AE0212095FEF2430F50C7C007DD7
:0E0AFC000AAF03AE0212095FED2430F50E22A0
:100B8700E4FDFCC3ED9FEC9E5015E4FBFA0BBB00A4
:0F0B9700010AEB64794A70F50DBD00010C80E492
:010BA600222C
:100BF6007580FFC2A0D2A100D2A20000E58020E746
:040C0600FBC2A22269
:100BE100ED6003120BF6C2A0C2A1008F8000D2A259
:050BF1000000C2A22279
:100C0A00120BF6D2A0C2A1008F8000D2A20000C2AD
:020C1A00A22214
:100BC6007D017F38120BE17F08120BE17F01120BCA
:0B0BD600E17F06120BE17F0C020BE137
:100BA700AE07AC0353050153060FED600343064040
:0F0BB700430680AF06E4FD120BE1AF04020C0A07
:100C2E0000000000000000000000000000000000B6
:010C3E002293
:0E0C3F007F307E02EF1FAC0670011E4C70F677
:010C4D002284
:0F0C4E00D291D290120C2EC291120C2EC2902273
:0C0C7700C291D290120C2ED291020C2ED1
:0E0C5D00A2009291D290120C2EC290020C2E88
:0C0C8300D290120C2EA291C290020C2EF6
:100B6500E4FEEEC39408748094805013EF25E0FFF3
:100B75009291D290120C2EC290120C2E0E80E3028E
:020B85000C83DF
:100B3E00E4FFD291FEEEC39408748094805017EFB8
:100B4E0025E0FFD290120C2EA291E4334207C29000
:060B5E00120C2E0E80DFD8
:010B6400226E
:100C1C00AD07120C4E7F46120B65AF05120B650229
:020C2C000C7743
:100B0A00120C4E7F47120B65E4FDEDC3940374800B
:100B1A009480501A120B3E740F2DF8A607ED640349
:100B2A007004D2008002C200120C5D0D80DC120C2F
:040B3A0077020C3FF3
:050C8F007F01020C1CB6
:1009C2007F647E00120B87120BC6120C8F7F0112FE
:1009D2000C1C7F10120C1C7FB47E00120B87120BB2
:1009E2000A750A00850F0BE50BFE7C00E42510F565
:1009F2000BEC3EF50AFCAD0B1208A57B9A7A9979AD
:100A020099783F1208038F1A8E198D188C171208C5
:100A1200DE120A8C7B4CE4FDFF120BA77B69E4FD1E
:100A22007F01120BA77B67E4FD7F02120BA70BE489
:100A3200FD7F03120BA77B74E4FD7F04120BA77BDF
:100A42003AE4FD7F05120BA7AB0DE4FD7F07120B05
:100A5200A7AB08E4FD7F08120BA7AB09E4FD7F09F1
:100A6200120BA7AB0CE4FD7F0A120BA7AB0EE4FD41
:100A72007F0B120BA77B6CE4FD7F0D120BA77B781B
:0A0A8200E4FD7F0E120BA70209CF5E
:10080000020954EC5D046005E85904700302094ACA
:10081000120915580460F6EC4860F2EC7004FDFE15
:10082000FF22C860DB2481C85009C39860025006CB
:100830000209519850CAF582E9294B4A7005AB82EA
:1008400002094075F0007C1A7880C3EF9BEE9AEDA8
:1008500099400DC3EF9BFFEE9AFEED99FDE842F043
:10086000DC23ACF0D0E0FFD0E0FED0E0FDAB822096
:10087000E7101BEB60BAEC2CFCEF33FFEE33FEED20
:1008800033FD02092CE803F830E705C0F075F000ED
:10089000EF2FFFEE33FEED33FD40B830E7C280AA04
:1008A00075F020800E75F010800575F0087D007ED3
:1008B000007F003392D530D5031209B4EC334010D9
:1008C000EF33FFEE33FEED33FDEC33FCD5F0ED22DC
:0E08D000E5F0247EA2D513CC92E7CDCEFF2218
:1008DE00EDD2E7CD33EC3392D524814006E4FFFE12
:1008EE00FDFC22FCE4CFCECDCC24E0501174FF8071
:1008FE00EDC3CC13CCCD13CDCE13CECF13CF04700E
:07090E00F030D5DE0209B450
:10091500E9D2E7C933E833F892D5EDD2E7CD33EC28
:0709250033FC5002B2D522A1
:10092C00EC30E7100FBF000C0EBE00080DBD00042C
:10093C000BEB6014A2D5EB13FCED92E7FD2274FFD8
:10094C00FCFDFEFF22E480F8A2D574FF13FC7D8031
:03095C00E480EF45
:10095F00BC000BBE0029EF8DF084FFADF022E4CC7C
:10096F00F875F008EF2FFFEE33FEEC33FCEE9DEC45
:10097F00984005FCEE9DFE0FD5F0E9E4CEFD22ED8B
:10098F00F8F5F0EE8420D21CFEADF075F008EF2FD5
:10099F00FFED33FD4007985006D5F0F222C398FDC6
:0509AF000FD5F0EA2263
:0E09B400C3E49FFFE49EFEE49DFDE49CFC2254
:00000001FF
