:100B410057656C636F6D6520746F20757365210047
:0C0B510048656C6C6F576F726C6421007B
:070BA50053CADF53C9DF2230
:10096900120A68120BA5120B247F80120B5D7BFF04
:100979007A0B7941120ADC7FC0120B5D7BFF7A0B7F
:100989007951120ADC7FC8120B89E4F59DFF120A1E
:10099900AEE4FF120AAE8E088F09759D087F031217
:1009A9000AAE8E0E8F0F7C007D7B12093CC006C0FB
:1009B90007AE08AF09AB07AA06E4F9F8D007D006D5
:1009C9001208AA8E0E8F0F7FCD120B5DAE0EAF0FE0
:1009D9007C007D64120819EF2430FF120B73AE0EF0
:1009E900AF0F7C007D641208197E007F0ACFCDCF3E
:1009F900CECCCE120819EF2430FF120B73AE0EAF16
:100A09000F7C007D0A120819ED2430FF120B737F49
:070A1900E8120B89020993AA
:03000B00020A20C6
:100A2000C0E0C0D075D000C000C007758CD8758AF2
:100A3000EF050CE50C7002050BC39432E50B940036
:100A4000401D750B00750C00AF0A7801EF0880019E
:100A500023D8FDF50A64087003750A01850A90D051
:080A600007D000D0D0D0E03235
:100A6800E4F593F594F591F592F595F596F5B1F5CC
:100A7800B2F5B3F5B4F5C9F5CAF5CBF5CCF5E1F5A2
:100A8800E24391085392F7759D0875BCE0F58E75A1
:100A98008901758CD8758AEFD2AFD2A9D28C750A24
:060AA80001F50BF50C2224
:0F0B89007D9B7C03ED1D70011C144C70F7DFF198
:010B9800223A
:100B060053C9EF43CA1053C9FE53CAFE53C9FD5316
:0E0B1600CAFD53C9FB53CAFBE4F5B3F5B42284
:100B5D008F10C2C87F01120B89D2CA8510C07F01C8
:060B6D00120B89C2CA222E
:100B73008F13D2C87F01120B898513C0D2CA7F019C
:060B8300120B89C2CA2218
:100ADC008B108A118912AB10AA11A912120800FFEF
:100AEC00D39400748094804010120B7374012512FF
:0A0AFC00F512E43511F51180DD223A
:100B2400120B06D2CCC2CAC2C97F38120B5D7F0C2D
:0D0B3400120B5D7F06120B5D7F01020B5D51
:100AAE00E4F5BDF5BEE5BC54E044084FF5BC0000CE
:100ABE000000E5BC541060FA53BCEFAFBDEF75F00B
:0E0ACE0004A4FFAEF0E5BE5403FDEF4DFF2281
:03000000020B9957
:0C0B9900787FE4F6D8FD7581130209692D
:10080000BB010689828A83E0225002E722BBFE02F6
:09081000E32289828A83E4932229
:10081900BC000BBE0029EF8DF084FFADF022E4CCC3
:10082900F875F008EF2FFFEE33FEEC33FCEE9DEC8C
:10083900984005FCEE9DFE0FD5F0E9E4CEFD22EDD2
:10084900F8F5F0EE8420D21CFEADF075F008EF2F1C
:10085900FFED33FD4007985006D5F0F222C398FD0D
:050869000FD5F0EA22AA
:10086E0075F008758200EF2FFFEE33FECD33CDCC41
:10087E0033CCC58233C5829BED9AEC99E5829840C4
:10088E000CF582EE9BFEED9AFDEC99FC0FD5F0D6A1
:10089E00E4CEFBE4CDFAE4CCF9A88222B800C1B9CB
:1008AE000059BA002DEC8BF084CFCECDFCE5F0CB09
:1008BE00F97818EF2FFFEE33FEED33FDEC33FCEB42
:1008CE0033FB10D703994004EB99FB0FD8E5E4F9FD
:1008DE00FA227818EF2FFFEE33FEED33FDEC33FCEA
:1008EE00C933C910D7059BE99A4007EC9BFCE99ADE
:1008FE00F90FD8E0E4C9FAE4CCFB2275F010EF2F23
:10090E00FFEE33FEED33FDCC33CCC833C810D70722
:10091E009BEC9AE899400AED9BFDEC9AFCE899F85D
:0E092E000FD5F0DAE4CDFBE4CCFAE4C8F922F0
:10093C00EC8EF0A4CCC5F0CCCDF8EFA4CEC5F02D48
:10094C00FDE43CFCE8A42EC8C5F03DFDE43CFCEF06
:0D095C00A4FFE5F028FEE43DFDE43CFC2294
:00000001FF
