:1008000000B7009401B300CF00BA01B300D300D009
:1008100001A900DC00EA019600E60104017700EB83
:100820000119016100F0013C013B00E6015B01138D
:1008300000D9016800F200C7017700D200C3017E31
:1008400000B200BD017900AC00C4009901B300D230
:1008500000AD01B200DA00C601B000EB00E1019A80
:1008600000F000FD017F00FC0118015E00FC013773
:10087000013600F40157011100E7016E00F500D8C0
:10088000018300D400D0018B00B400C8018100AF07
:1008900000DC009B01B300EA00AE01B200FA00C622
:1008A00001AF010800E0019C011300FD0182011865
:1008B0000114015F011601340137010C01520111CD
:1008C0000101016C00F100FC017C00D700ED018802
:1008D00000BC00DB017D00AC00E8009801AE010225
:1008E00000AD01AC011400C401A1012200DE018FA2
:1008F000013200FA01750139011001500133012C58
:10090000012F01240148010C011C015E00EC0115BE
:10091000017200D90103017C00C800FF017000B71B
:1009200001010096018E011600A80193012C00C060
:100930000189014200D5017C015200EE016101579D
:10094000010601400154011C012001430134010250
:10095000013E014A00E60130015B00CE0113016A4D
:1009600000B60100016300A8011A00920170013570
:1009700000A2017B015000B70170015E00C7015E5B
:10098000016D00E30148017500F8012C016F010CB5
:10099000010C0165012100F6015B013200DA014C16
:1009A000014000CC0131014E00B60115014400A503
:1009B0000128009001540145009E0159016400B4D2
:1009C0000152017600C10145018400DA0128018B42
:1009D00000EC0115018600FE0101017E010D00EE13
:1009E000016F011A00D40160012400C601480128EA
:1009F00000B2012E012000A301360088012E015013
:100A000000900131016D00A2012F018500B3012585
:100A1000019500DC0110019F00D600FE019900E95C
:100A200000EC019000F900DA017E010400CC016BBA
:100A3000010900BD0156010A00AB01390105009A08
:100A400001320080010F0150008A0114016A009AEE
:100A50000112017F00A4010C019600B90102019A64
:100A600000C600F2019A00D700DD019200E300CB3E
:100A7000017F00EE00BC016C00F700AA015200F2F9
:100A80000098013000ED008C0128007600FE014343
:100A9000007C00FF015D008E00FE0171009800F5F2
:100AA000018300A200E4018D00AF00D2018B00C2DF
:100AB00000C8017F00CB00BC017200D900AA015E12
:100AC00000DE009B014500DF008E012A00DD008C66
:100FDA00E4F58E758901758CF6758A9FD2AFD2A910
:100FEA00D28C780F04F2E47812F208F2780CF2222A
:100F7E00E4F593F594F591F592F595F596F5B1F5B1
:100F8E00B2F5B3F5B4F5C9F5CAF5CBF5CCF5E1F587
:0E0F9E00E24391085392F7759D0875BCE0225E
:100AD000120FDA120F7E121018780CE2606DE4F239
:100AE0007853F27853E2C3940374809480505CE4AA
:100AF00018F27852E2FFC3940A7480948050280858
:100B0000E2FE75F014A42416F8EF25E028F8E2FCC4
:100B100008E2FDEE25E02401F8E22DF218E23CF2B5
:100B20007852E204F280CB7853E225E02400F8C04A
:100B300000E2FE08E2FF7C007D0A120D46D000EEC6
:100B4000F208EFF27853E204F2809878107461F2C0
:100B50000874A8F2E47852F27852E2C3940A7480DE
:100B600094804003020C25E408F27853E2C3940C0D
:100B7000748094804003020C1DE408F27854E2C3B0
:100B800094037480948050637852E275F048A424F2
:100B900000F582E5F03408F58308E275F006120EE0
:100BA0006908E2FF75F002120E69EF25E02400F8F3
:100BB000E2FE08E2FFC37401939FFFE4939EFE12DE
:100BC00010917854E2FD25E02406F8EEF208EFF2E9
:100BD000ED25E02406F8E2FE08E2FF7815E22FF2A8
:100BE00018E23EF27854E204F280917814E2FE08B2
:100BF000E2FFD37811E29F18E29E4013EEF208EF75
:100C0000F27852E204780DF27853E204780EF2E4BE
:100C10007814F208F27853E204F2020B6A7852E296
:100C200004F2020B58E47852F27852E2FFC39403C4
:100C3000748094805070EF75F005A424C0FF1210EA
:100C4000357852E225E02400F8E2FE08E2FF7C005D
:100C50007D64120D46EF2430FF12104F7852E225CA
:100C6000E02400F8E2FE08E2FF7C007D64120D46FD
:100C70007E007F0ACFCDCFCECCCE120D46EF2430F2
:100C8000FF12104F7852E225E02400F8E2FE08E25D
:100C9000FF7C007D0A120D46ED2430FF12104F78C4
:100CA00052E204F28083E47852F27852E2FFC39475
:100CB00002748094805036EF75F005A42480FF12F2
:100CC00010357852E2240DF8E275F00A842430FFE2
:100CD00012104F7852E2240DF8E275F00A84E5F024
:100CE0002430FF12104F7852E204F280BD7F8A1246
:100CF00010357810E2FE08E2FF7C007D64120D469C
:100D0000EF2430FF12104F7810E2FE08E2FF7C0063
:100D10007D64120D467E007F0ACFCDCFCECCCE12A1
:100D20000D46EF2430FF12104F7810E2FE08E2FF6C
:100D30007C007D0A120D46ED2430FF12104F7FE833
:060D4000121069020AD93D
:03000B00020EA240
:100EA200C0E0C0F0C083C082C0D075D000C000C016
:100EB20001C002C003C004C005C006C007758CF69D
:100EC200758A9F780FE2FF780108800123D8FD78A8
:100ED2000FF26408700204F2780FE2F580121079C2
:100EE200120F457812E275F014A42416F8C00078A7
:100EF20013E2D00025E028F8EEF208EFF27812E2D1
:100F020004F2E2C3940374809480400708E204F27E
:100F120018E4F27813E2C3940A748094804009784A
:100F22000C7401F27813E4F2D007D006D005D00495
:100F3200D003D002D001D000D0D0D082D083D0F064
:030F4200D0E032CA
:0F1069007D9B7C03ED1D70011C144C70F7DFF1B3
:011078002255
:0B1079000000007F0B7EBEDEFEDFFCEF
:011084002249
:100FFA0053C9EF43CA1053C9FE53CAFE53C9FD531E
:0E100A00CAFD53C9FB53CAFBE4F5B3F5B4228B
:101035007857EFF2C2C87F01121069D2CA7857E219
:0A104500F5C07F01121069C2CA2233
:10104F007857EFF2D2C87F011210697857E2F5C0D6
:0A105F00D2CA7F01121069C2CA2232
:10101800120FFAD2CCC2CAC2C97F381210357F0C5F
:0D1028001210357F061210357F01021035C1
:100FAC00E4F5BDF5BEE5BC54E044084FF5BC0000CB
:100FBC000000E5BC541060FA53BCEFAFBDEF75F008
:0E0FCC0004A4FFAEF0E5BE5403FDEF4DFF227E
:100F4500E4F59DFF120FACE4FF120FAC7855EEF2FD
:100F550008EFF2759D087F03120FAC7C007D7B12B4
:100F65000E75C006C0077855E2FE08E2FBAA06E446
:090F7500F9F8D007D006020DD7EF
:0300000002108566
:0C108500787FE4F6D8FD758107020AD0E0
:100D4600BC000BBE0029EF8DF084FFADF022E4CC91
:100D5600F875F008EF2FFFEE33FEEC33FCEE9DEC5A
:100D6600984005FCEE9DFE0FD5F0E9E4CEFD22EDA0
:100D7600F8F5F0EE8420D21CFEADF075F008EF2FEA
:100D8600FFED33FD4007985006D5F0F222C398FDDB
:050D96000FD5F0EA2278
:100D9B0075F008758200EF2FFFEE33FECD33CDCC0F
:100DAB0033CCC58233C5829BED9AEC99E582984092
:100DBB000CF582EE9BFEED9AFDEC99FC0FD5F0D66F
:100DCB00E4CEFBE4CDFAE4CCF9A88222B800C1B999
:100DDB000059BA002DEC8BF084CFCECDFCE5F0CBD7
:100DEB00F97818EF2FFFEE33FEED33FDEC33FCEB10
:100DFB0033FB10D703994004EB99FB0FD8E5E4F9CB
:100E0B00FA227818EF2FFFEE33FEED33FDEC33FCB7
:100E1B00C933C910D7059BE99A4007EC9BFCE99AAB
:100E2B00F90FD8E0E4C9FAE4CCFB2275F010EF2FF0
:100E3B00FFEE33FEED33FDCC33CCC833C810D707F0
:100E4B009BEC9AE899400AED9BFDEC9AFCE899F82B
:0E0E5B000FD5F0DAE4CDFBE4CCFAE4C8F922BE
:0C0E6900A42582F582E5F03583F5832294
:100E7500EC8EF0A4CCC5F0CCCDF8EFA4CEC5F02D0A
:100E8500FDE43CFCE8A42EC8C5F03DFDE43CFCEFC8
:0D0E9500A4FFE5F028FEE43DFDE43CFC2256
:0C109100EE30E707C3E49FFFE49EFE2260
:00000001FF
