:0C0BDC0048656C6C6F576F726C642100F0
:070BF40053CADF53C9DF22E1
:10096900120A85120BF4120B837F80120BA07BFFF6
:100979007A0B79DC120B3B7FC8120BCCE4F50DF531
:100989000EE50E25E025E024C0FF120BA0E50E259B
:10099900E0240FF8E6FE08E6FF7C007D64120819E2
:1009A900EF2430FF120BB6E50E25E0240FF8E6FE22
:1009B90008E6FF7C007D641208197E007F0ACFCD0E
:1009C900CFCECCCE120819EF2430FF120BB6E50EAC
:1009D90025E0240FF8E6FE08E6FF7C007D0A1208F0
:1009E90019ED2430FF120BB67FE8120BCC050EE58A
:1009F9000E7002050DC39403E50D940040830209AE
:010A09008567
:03000B00020A0ADC
:100A0A00C0E0C0F0C083C082C0D075D000C000C0B2
:100A1A0001C002C003C004C005C006C007758CF23D
:100A2A00758AB7AF087801EF08800123D8FDF50869
:100A3A0064087003750801850880120ACFE50C2541
:100A4A00E0240FF8A60608A607050CE50C700205B7
:100A5A000BC39403E50B94004006750B00750C005C
:100A6A00D007D006D005D004D003D002D001D000E0
:0B0A7A00D0D0D082D083D0F0D0E0328A
:100A8500E4F593F594F591F592F595F596F5B1F5AF
:100A9500B2F5B3F5B4F5C9F5CAF5CBF5CCF5E1F585
:100AA500E24391085392F7759D0875BCE0F58E7584
:100AB5008901758CF2758AB7D2AFD2A9D28C750827
:0A0AC50001F509F50AF50BF50C2206
:0F0BCC007D9B7C03ED1D70011C144C70F7DFF155
:010BDB0022F7
:100B650053C9EF43CA1053C9FE53CAFE53C9FD53B7
:0E0B7500CAFD53C9FB53CAFBE4F5B3F5B42225
:100BA0008F1AC2C87F01120BCCD2CA851AC07F012E
:060BB000120BCCC2CA22A8
:100BB6008F1DD2C87F01120BCC851DC0D2CA7F0102
:060BC600120BCCC2CA2292
:100B3B008B1A8A1B891CAB1AAA1BA91C120800FF53
:100B4B00D39400748094804010120BB67401251C52
:0A0B5B00F51CE4351BF51B80DD22BC
:100B8300120B65D2CCC2CAC2C97F38120BA07F0C2C
:0D0B9300120BA07F06120BA07F01020BA029
:100B0D00E4F5BDF5BEE5BC54E044084FF5BC00006E
:100B1D000000E5BC541060FA53BCEFAFBDEF75F0AB
:0E0B2D0004A4FFAEF0E5BE5403FDEF4DFF2221
:100ACF00E4F59DFF120B0DE4FF120B0D8E158F1623
:100ADF00759D087F03120B0D8E188F197C007D7B7F
:100AEF0012093CC006C007AE15AF16AB07AA06E445
:0E0AFF00F9F8D007D0061208AA8E188F192217
:03000000020BE808
:0C0BE800787FE4F6D8FD75811D020969D4
:10080000BB010689828A83E0225002E722BBFE02F6
:09081000E32289828A83E4932229
:10081900BC000BBE0029EF8DF084FFADF022E4CCC3
:10082900F875F008EF2FFFEE33FEEC33FCEE9DEC8C
:10083900984005FCEE9DFE0FD5F0E9E4CEFD22EDD2
:10084900F8F5F0EE8420D21CFEADF075F008EF2F1C
:10085900FFED33FD4007985006D5F0F222C398FD0D
:050869000FD5F0EA22AA
:10086E0075F008758200EF2FFFEE33FECD33CDCC41
:10087E0033CCC58233C5829BED9AEC99E5829840C4
:10088E000CF582EE9BFEED9AFDEC99FC0FD5F0D6A1
:10089E00E4CEFBE4CDFAE4CCF9A88222B800C1B9CB
:1008AE000059BA002DEC8BF084CFCECDFCE5F0CB09
:1008BE00F97818EF2FFFEE33FEED33FDEC33FCEB42
:1008CE0033FB10D703994004EB99FB0FD8E5E4F9FD
:1008DE00FA227818EF2FFFEE33FEED33FDEC33FCEA
:1008EE00C933C910D7059BE99A4007EC9BFCE99ADE
:1008FE00F90FD8E0E4C9FAE4CCFB2275F010EF2F23
:10090E00FFEE33FEED33FDCC33CCC833C810D70722
:10091E009BEC9AE899400AED9BFDEC9AFCE899F85D
:0E092E000FD5F0DAE4CDFBE4CCFAE4C8F922F0
:10093C00EC8EF0A4CCC5F0CCCDF8EFA4CEC5F02D48
:10094C00FDE43CFCE8A42EC8C5F03DFDE43CFCEF06
:0D095C00A4FFE5F028FEE43DFDE43CFC2294
:00000001FF
