:100B250057656C636F6D6520746F20757365210063
:0C0B350048656C6C6F576F726C64210097
:070B890053CADF53C9DF224C
:10096900120A1B120B89120B087F80120B417BFFA5
:100979007A0B7925120AC07FC0120B417BFF7A0BD3
:100989007935120AC07FC8120B6DE4F59DFF120A72
:1009990092E4FF120A928E088F09759D087F03124F
:1009A9000A928E0C8F0D7C007D7B12093CC006C01B
:1009B90007AE08AF09AB07AA06E4F9F8D007D006D5
:1009C9001208AA8E0C8F0D7FCD120B41AE0CAF0D04
:1009D9007C007D64120819EF2430FF120B57AE0C0E
:1009E900AF0D7C007D641208197E007F0ACFCDCF40
:1009F900CECCCE120819EF2430FF120B57AE0CAF34
:100A09000D7C007D0A120819ED2430FF120B5702E4
:020A190009933F
:03000B00020A5F87
:100A5F00C0E0C0D075D000C000C007758CD8758AB3
:100A6F00EFAF0A7801EF08800123D8FDF50A64087B
:100A7F007003750A01850A90B2CDD007D000D0D08F
:030A8F00D0E03282
:100A1B00E4F593F594F591F592F595F596F5B1F519
:100A2B00B2F5B3F5B4F5C9F5CAF5CBF5CCF5E1F5EF
:100A3B00E24391085392F7759D0875BCE0F58E75EE
:100A4B008901758CD8758AEFD2AFD2A9D28C750A71
:040A5B0001D2CD22D5
:0F0B6D007D9B7C03ED1D70011C144C70F7DFF1B4
:010B7C002256
:100AEA0053C9EF43CA1053C9FE53CAFE53C9FD5333
:0E0AFA00CAFD53C9FB53CAFBE4F5B3F5B422A1
:100B41008F0EC2C87F01120B6DD2CA850EC07F0104
:060B5100120B6DC2CA2266
:100B57008F11D2C87F01120B6D8511C0D2CA7F01D8
:060B6700120B6DC2CA2250
:100AC0008B0E8A0F8910AB0EAA0FA910120800FF17
:100AD000D39400748094804010120B577401251039
:0A0AE000F510E4350FF50F80DD225C
:100B0800120AEAD2CCC2CAC2C97F38120B417F0C82
:0D0B1800120B417F06120B417F01020B41C1
:100A9200E4F5BDF5BEE5BC54E044084FF5BC0000EA
:100AA2000000E5BC541060FA53BCEFAFBDEF75F027
:0E0AB20004A4FFAEF0E5BE5403FDEF4DFF229D
:03000000020B7D73
:0C0B7D00787FE4F6D8FD7581110209694B
:10080000BB010689828A83E0225002E722BBFE02F6
:09081000E32289828A83E4932229
:10081900BC000BBE0029EF8DF084FFADF022E4CCC3
:10082900F875F008EF2FFFEE33FEEC33FCEE9DEC8C
:10083900984005FCEE9DFE0FD5F0E9E4CEFD22EDD2
:10084900F8F5F0EE8420D21CFEADF075F008EF2F1C
:10085900FFED33FD4007985006D5F0F222C398FD0D
:050869000FD5F0EA22AA
:10086E0075F008758200EF2FFFEE33FECD33CDCC41
:10087E0033CCC58233C5829BED9AEC99E5829840C4
:10088E000CF582EE9BFEED9AFDEC99FC0FD5F0D6A1
:10089E00E4CEFBE4CDFAE4CCF9A88222B800C1B9CB
:1008AE000059BA002DEC8BF084CFCECDFCE5F0CB09
:1008BE00F97818EF2FFFEE33FEED33FDEC33FCEB42
:1008CE0033FB10D703994004EB99FB0FD8E5E4F9FD
:1008DE00FA227818EF2FFFEE33FEED33FDEC33FCEA
:1008EE00C933C910D7059BE99A4007EC9BFCE99ADE
:1008FE00F90FD8E0E4C9FAE4CCFB2275F010EF2F23
:10090E00FFEE33FEED33FDCC33CCC833C810D70722
:10091E009BEC9AE899400AED9BFDEC9AFCE899F85D
:0E092E000FD5F0DAE4CDFBE4CCFAE4C8F922F0
:10093C00EC8EF0A4CCC5F0CCCDF8EFA4CEC5F02D48
:10094C00FDE43CFCE8A42EC8C5F03DFDE43CFCEF06
:0D095C00A4FFE5F028FEE43DFDE43CFC2294
:00000001FF
