:0C0BEF0048656C6C6F576F726C642100DD
:070C070053CADF53C9DF22CD
:10096900120A9C120C07120B967F80120BB37BFFA5
:100979007A0B79EF120B4E7FC8120BDFE4F50DF5F8
:100989000EE50E25E025E024C0FF120BB3E50E2588
:10099900E0240FF8E6FE08E6FF7C007D64120819E2
:1009A900EF2430FF120BC9E50E25E0240FF8E6FE0F
:1009B90008E6FF7C007D641208197E007F0ACFCD0E
:1009C900CFCECCCE120819EF2430FF120BC9E50E99
:1009D90025E0240FF8E6FE08E6FF7C007D0A1208F0
:1009E90019ED2430FF120BC97FE8120BDF050EE564
:1009F9000E7002050DC39403E50D940040830209AE
:010A09008567
:03000B00020A0ADC
:100A0A00C0E0C0F0C083C082C0D075D000C000C0B2
:100A1A0001C002C003C004C005C006C007758CD857
:100A2A00758AEF050AE50A70020509C39432E509D9
:100A3A0094004043750900750A00AF087801EF0871
:100A4A00800123D8FDF5086408700375080185083C
:100A5A0090750B00750C00120AE2E50C25E0240FD4
:100A6A00F8A60608A607050CE50C7002050BC39448
:100A7A0003E50B940040E0D007D006D005D004D09F
:100A8A0003D002D001D000D0D0D082D083D0F0D011
:020A9A00E03248
:100A9C00E4F593F594F591F592F595F596F5B1F598
:100AAC00B2F5B3F5B4F5C9F5CAF5CBF5CCF5E1F56E
:100ABC00E24391085392F7759D0875BCE0F58E756D
:100ACC008901758CD8758AEFD2AFD2A9D28C7508F2
:060ADC0001F509F50A22F4
:0F0BDF007D9B7C03ED1D70011C144C70F7DFF142
:010BEE0022E4
:100B780053C9EF43CA1053C9FE53CAFE53C9FD53A4
:0E0B8800CAFD53C9FB53CAFBE4F5B3F5B42212
:100BB3008F1AC2C87F01120BDFD2CA851AC07F0108
:060BC300120BDFC2CA2282
:100BC9008F1DD2C87F01120BDF851DC0D2CA7F01DC
:060BD900120BDFC2CA226C
:100B4E008B1A8A1B891CAB1AAA1BA91C120800FF40
:100B5E00D39400748094804010120BC97401251C2C
:0A0B6E00F51CE4351BF51B80DD22A9
:100B9600120B78D2CCC2CAC2C97F38120BB37F0CF3
:0D0BA600120BB37F06120BB37F01020BB3DD
:100B2000E4F5BDF5BEE5BC54E044084FF5BC00005B
:100B30000000E5BC541060FA53BCEFAFBDEF75F098
:0E0B400004A4FFAEF0E5BE5403FDEF4DFF220E
:100AE200E4F59DFF120B20E4FF120B208E158F16EA
:100AF200759D087F03120B208E188F197C007D7B59
:100B020012093CC006C007AE15AF16AB07AA06E431
:0E0B1200F9F8D007D0061208AA8E188F192203
:03000000020BFBF5
:0C0BFB00787FE4F6D8FD75811D020969C1
:10080000BB010689828A83E0225002E722BBFE02F6
:09081000E32289828A83E4932229
:10081900BC000BBE0029EF8DF084FFADF022E4CCC3
:10082900F875F008EF2FFFEE33FEEC33FCEE9DEC8C
:10083900984005FCEE9DFE0FD5F0E9E4CEFD22EDD2
:10084900F8F5F0EE8420D21CFEADF075F008EF2F1C
:10085900FFED33FD4007985006D5F0F222C398FD0D
:050869000FD5F0EA22AA
:10086E0075F008758200EF2FFFEE33FECD33CDCC41
:10087E0033CCC58233C5829BED9AEC99E5829840C4
:10088E000CF582EE9BFEED9AFDEC99FC0FD5F0D6A1
:10089E00E4CEFBE4CDFAE4CCF9A88222B800C1B9CB
:1008AE000059BA002DEC8BF084CFCECDFCE5F0CB09
:1008BE00F97818EF2FFFEE33FEED33FDEC33FCEB42
:1008CE0033FB10D703994004EB99FB0FD8E5E4F9FD
:1008DE00FA227818EF2FFFEE33FEED33FDEC33FCEA
:1008EE00C933C910D7059BE99A4007EC9BFCE99ADE
:1008FE00F90FD8E0E4C9FAE4CCFB2275F010EF2F23
:10090E00FFEE33FEED33FDCC33CCC833C810D70722
:10091E009BEC9AE899400AED9BFDEC9AFCE899F85D
:0E092E000FD5F0DAE4CDFBE4CCFAE4C8F922F0
:10093C00EC8EF0A4CCC5F0CCCDF8EFA4CEC5F02D48
:10094C00FDE43CFCE8A42EC8C5F03DFDE43CFCEF06
:0D095C00A4FFE5F028FEE43DFDE43CFC2294
:00000001FF
